:020000040800F2
:1000000098CD0020359A00085503000857030008D2
:100010005B0300085F0300086303000800000000A2
:10002000000000000000000000000000670300085E
:1000300069030008000000006B0300086D0300085E
:100040004F9A00084F9A00084F9A00084F9A0008EC
:100050004F9A00084F9A00084F9A00084F9A0008DC
:100060004F9A00084F9A0008E12701084F9A0008AC
:100070004F9A00084F9A00084F9A00084F9A0008BC
:100080004F9A00084F9A00084F9A00084F9A0008AC
:100090004F9A00084F9A00084F9A00084F9A00089C
:1000A0004F9A00084F9A00084F9A00084F9A00088C
:1000B0004F9A00084F9A00080D0701084F9A000850
:1000C0004F9A00084F9A00084F9A00084F9A00086C
:1000D0004F9A0008AB9900084F9A0008D193000886
:1000E0004F9A00084F9A00084F9A00084F9A00084C
:1000F0004F9A00084F9A00084F9A00084F9A00083C
:100100004F9A0008557000084F9A00084F9A00084F
:100110004F9A00084F9A00084F9A0008459300082C
:100120004F9A00084F9A00084F9A00084F9A00080B
:1001300000F002F800F0B0F80AA090E8000C824449
:100140008344AAF10107DA4501D100F0A5F8AFF226
:10015000090EBAE80F0013F0010F18BFFB1A43F0A5
:1001600001031847CC7A0100EC7A01000A444FF0F1
:10017000000C10F8013B13F0070408BF10F8014B06
:100180001D1108BF10F8015B641E05D010F8016B4B
:10019000641E01F8016BF9D113F0080F1EBF10F8AF
:1001A000014BAD1C0C1B09D16D1E58BF01F801CBD2
:1001B000FAD505E014F8016B01F8016B6D1EF9D555
:1001C0009142D6D37047000000230024002500266A
:1001D000103A28BF78C1FBD8520728BF30C148BFAA
:1001E0000B6070476E2913F0C982702912F0D28714
:1001F000662915F09884652915F09584672915F00E
:100200009284612915F0918403681B0A28BF41F08C
:100210008001692912F04087642912F03D87752911
:1002200012F03A876F2913F0C583782912F09E8760
:10023000E92913F05D83E42913F05A83F52913F0BB
:100240005783EF2913F0C283F82912F09D870368C2
:10025000DB0928BF41F08001632913F0CC827329A8
:1002600013F0D182E32913F0C787F32913F0CC8769
:10027000002070471FB514F021F804000020002171
:1002800014F0EAFC401C60600020002114F0CEFC59
:10029000E0601FBD10B510BD13F0E2FF1146FFF77F
:1002A000E9FF00F009F814F0BFF803B4FFF7F2FF1C
:1002B00003BC09F021FB000070B50024002509F003
:1002C000ADFA4FF4A06009F0D5FB4FF4E13009F02E
:1002D00020FB01F0ACF807F03DF8174908688047AB
:1002E00000F034F900F07CF904F0C5FF09F0A4F93E
:1002F00000200CF030FA0FF095FD1049012208683B
:100300000FA10DF026FF0D49012248680DA10DF047
:1003100020FF0D48006850B900200C4908604FF0DC
:10032000640009F0B7FA01200949C1F88C0112F004
:1003300070FD002070BD000030000020C8000020CB
:10034000303A0000313A0000080122428C0122427A
:1003500000002242704700BFFEE700BFFEE700BF7B
:10036000FEE700BFFEE77047704770477047000028
:100370000CB50020019000906B48006840F480307C
:100380006949086000BF6848006800F400300090C8
:100390000198401C0190009818B90198B0F5A06F21
:1003A000F1D16148006810F4003F02D001200090B4
:1003B00001E0002000900098012842D15B480068CD
:1003C00040F01000594908600846006820F003001A
:1003D00008600846006840F0020008605248406823
:1003E000514948600846406848600846406840F403
:1003F000806048600846406820F47C1048600846E9
:10040000406840F4E81048600846006840F080709A
:10041000086000BF4448006810F0007FFAD04248EE
:10042000406820F00300404948600846406840F0BA
:100430000200486000BF3C48406800F00C000828FB
:10044000F9D10CBD10B5FFF793FF10BD10B53648BC
:10045000006840F0010034490860084640683449AB
:1004600008403149486008460068324908402E4932
:1004700008600846006820F480200860084640684C
:1004800020F4FE0048604FF41F008860FFF7DAFF99
:100490004FF000602849086010BD10B50021002011
:1004A0000022214B5B6803F00C0121B1042906D026
:1004B000082928D107E0214B214C236027E01F4B5E
:1004C0001F4C236023E0184B5B6803F47010164B3D
:1004D0005B6803F48032022303EB904022B9194B8E
:1004E0004343174C23600DE00F4B5B6813F4003F50
:1004F00004D0144B4343124C236003E00F4B43439F
:100500000F4C236003E00D4B0D4C236000BF00BF78
:10051000054B5B68C3F303130B4CE15C084B1B6892
:10052000CB40074C236010BD001002400020024069
:100530000000FFF8FFFFF6FE08ED00E000127A0071
:100540000000002000093D000400002008B5012142
:1005500058200AF01FF92020ADF8000010208DF877
:10056000030003208DF8020069461A4809F05CFE7A
:100570002021184809F003FF2020ADF8000069464B
:10058000154809F051FE2021134809F0F8FE142007
:10059000ADF8000004208DF8030003208DF8020060
:1005A00069460E4809F040FE10210C4809F0E7FEAC
:1005B0000820ADF8000010208DF8030003208DF80E
:1005C00002006946054809F02FFE0821034809F09A
:1005D000D6FE08BD000C014000180140001001408B
:1005E00008B5012144200AF0D5F81C20ADF8000020
:1005F00048208DF803006946354809F015FE0120B2
:10060000ADF8000028208DF803006946314809F054
:100610000BFE08BD10B5044614B101202E49087028
:100620002D480078002837D01021294809F08DFE88
:1006300078B10821264809F088FE50B104212448E9
:1006400009F083FE28B10121224809F07EFE01282D
:1006500022D10A2009F01EF900201F49087010213C
:100660001B4809F072FE08B9012010BD0821184886
:1006700009F06BFE08B90220F7E70421144809F0DD
:1006800064FE08B90320F0E70121124809F05DFE7D
:1006900001281BD10420E8E710210D4809F055FE80
:1006A000012813D108210A4809F04FFE01280DD175
:1006B0000421074809F049FE012807D10121054816
:1006C00009F043FE10B90120034908700020CCE76F
:1006D000001801400008014014000020F74908807C
:1006E0007047F649891C0880704708B5F348801C9C
:1006F00000880090BDF8000008BDF04A1080921CF0
:100700001180704710B504462046FFF7E7FF05202B
:1007100009F09DF8FFF7E9FF10BDE9480089E749B6
:1007200008807047E549891C0880704730B501464C
:1007300001F01F04C1F34513CA0AE50205EB431596
:100740001544A8B230BD00BF0100A0F10102D0B233
:10075000FAD1704710B503460C46D9488088A0F5F9
:100760001341413905D0D6488088A0F5A6411039FB
:1007700014D1D3494889FFF7B1FF1812FFF7B1FF31
:10078000D8B2FFF7AEFFCE498889FFF7A7FF201246
:10079000FFF7A7FFE0B2FFF7A4FFABE0C8488088EF
:1007A000A0F5D04104391DD1C5488079012804D174
:1007B000C3480088401EC01A83B2C1494889FFF768
:1007C0008DFF1812FFF78DFFD8B2FFF78AFFBC49E3
:1007D0008889FFF783FF2012FFF783FFE0B2FFF75E
:1007E00080FF87E0B6488088A0F5C851633947D1BB
:1007F000B3488079A8B9B2480088401EC01A83B2B5
:10080000AF494889FFF76AFF0020FFF76AFF002021
:10081000FFF767FF1812FFF764FFD8B2FFF761FF19
:1008200016E0A7494889FFF759FF1812FFF759FF4B
:10083000D8B2FFF756FFA2490988491EC1F30F201D
:10084000FFF74FFF9E490978491EC8B2FFF749FFDD
:100850009B498889FFF742FF2012FFF742FFE0B271
:10086000FFF73FFF96494988491EC1F30F20FFF764
:1008700038FF93498978491EC8B2FFF732FF39E043
:100880008F488088A0F5AA41103920D18C49488929
:10089000FFF724FF1812FFF724FF89494989491CF3
:1008A00088B2FFF71BFFD8B2FFF71BFF8449888986
:1008B000FFF714FF2012FFF714FF81498989491CB3
:1008C00088B2FFF70BFFE0B2FFF70BFF12E07C48A6
:1008D0008079012804D17A480088401EC01A83B26A
:1008E000774948891946FFF708FF754988892146E5
:1008F000FFF703FF10BD2DE9F04105460E46002429
:100900000027A0466E480088A84203DD6C48408856
:10091000B04202DC0020BDE8F08131462846FFF7F6
:1009200019FF67488088A0F51341413911D0644808
:100930008088A0F5D04104390BD061488088A0F5AB
:10094000A641103905D05E488088A0F5C8516339AA
:1009500003D12E20FFF7C2FE0DE059488088A0F594
:10096000AA41103904D14FF43850FFF7B7FE02E026
:100970002220FFF7B3FE52488088A0F513412039AA
:1009800002D10220FFF7DFFEFFF7AFFE04464C481E
:100990008088A0F5C851633901D12046BBE7022009
:1009A000FFF7D1FEFFF7A1FE044645488088A0F579
:1009B000134141390BD042488088A0F5A641103937
:1009C00005D03F488088A0F5AA4110390AD10220FD
:1009D000FFF7B9FEFFF789FE8046E7B24FF6FF70DA
:1009E00000EA072736488088A0F51341253917D03B
:1009F00033488088A0F58A41353911D03048808845
:100A0000A0F58A4131390BD02D488088A0F53541B9
:100A1000053905D02A488088A0F54541053901D11E
:100A2000204678E726488088A0F5134141390BD04D
:100A300023488088A0F5A641103905D02048808839
:100A4000A0F5AA41103907D1E012C002B91240EA5C
:100A5000411040EAE8205EE72046FFF767FE5AE7CC
:100A600000B517488088A0F51341413911D01448CA
:100A70008088A0F5D04104390BD011488088A0F5BA
:100A8000A641103905D00E488088A0F5C8516339B9
:100A900003D12920FFF722FE0FE009488088A0F546
:100AA000AA41103904D14FF42450FFF717FE04E097
:100AB00040F273110720FFF720FE00BDFE07006C17
:100AC000BC02002000B5FD488088A0F513414139E3
:100AD00011D0FA488088A0F5D04104390BD0F748EE
:100AE0008088A0F5A641103905D0F4488088A0F58B
:100AF000C851633903D12820FFF7F0FD0EE0EF481D
:100B00008088A0F5AA41103904D14FF42050FFF796
:100B1000E5FD03E000210720FFF7EFFD00BDF0B584
:100B2000054600240027E548807901280BD1E348D9
:100B30008088A0F5D041043905D0E0488088A0F530
:100B4000C851633908D1DD488079F0B9DB48808825
:100B5000A0F5C851633918D1082D15D2DFE805F08A
:100B60000406080A0C0E101206250DE007250BE0FE
:100B7000042509E0052507E0012505E0002503E03F
:100B8000032501E0022500BF00BFCC488088A0F506
:100B90001341413917D0C9488088A0F5D0410439A4
:100BA00011D0C6488088A0F5A64110390BD0C348A3
:100BB0008088A0F5AA41103905D0C0488088A0F5EA
:100BC000C85163397ED1082D1CD2DFE805F0040638
:100BD000090C0F12151800BF14E044F0800411E056
:100BE00044F040040EE044F0C0040BE044F0200464
:100BF00008E044F0600405E044F0A00402E044F0A2
:100C0000E00400BF00BFAD488088A0F5AA411039BC
:100C100002D14FF4585700E03627A8488088A0F545
:100C2000A64110390DD0A5488088A0F5AA411039F9
:100C300007D0A2488088A0F5C851633901D044F09C
:100C400008049E488088A0F5D041043901D144F0C1
:100C5000020421463846FFF750FD98488088A0F5E9
:100C6000C85163391DD014F0200F0DD0934800886F
:100C700092494988884214DA9048068840888F490A
:100C80000880084646800CE08C4800888B494988DB
:100C9000884206DD894806884088884908800846D9
:100CA000468086488088A0F5AA41103954D18349EE
:100CB0004889FFF713FD0020FFF713FD7F4949899D
:100CC000491C00E077E088B2FFF708FD0020FFF73D
:100CD00008FD7A494989891C88B2FFF7FFFC7749EA
:100CE0000988491EC1F30F20FFF7FBFC73494989AE
:100CF000C91C88B2FFF7F2FC70490978491EC8B2D6
:100D0000FFF7EFFC6D498889FFF7E8FC0020FFF74B
:100D1000E8FC6A498989491C88B2FFF7DFFC00209A
:100D2000FFF7DFFC65498989891C88B2FFF7D6FC8B
:100D300062494988491EC1F30F20FFF7D2FC5F4981
:100D40008989C91C88B2FFF7C9FC5C498978491EAA
:100D5000C8B2FFF7C6FC55E058494889FFF7BEFC0A
:100D60000020FFF7BEFC0020FFF7BBFC53490988B9
:100D7000491EC1F30F20FFF7B4FC50490978491E02
:100D8000C8B2FFF7AEFC4D498889FFF7A7FC0020E9
:100D9000FFF7A7FC0020FFF7A4FC48494988491E3B
:100DA000C1F30F20FFF79DFC44498978491EC8B262
:100DB000FFF797FC26E0082D1CD2DFE805F00407BA
:100DC0000A0D0F12151844F0300413E044F010041B
:100DD00010E044F020040DE000BF0BE044F03804C4
:100DE00008E044F0280405E044F0180402E044F070
:100DF000080400BF00BF032744F48054214638464E
:100E0000FFF77BFCF0BD30B504460D462946204671
:100E1000FFF7A0FCFFF781FC2948008829490880DA
:100E200030BD30B503460C46154624488088A0F5F1
:100E30001341413905D021488088A0F5A6411039D9
:100E400014D11E494889FFF749FC1812FFF749FCE5
:100E5000D8B2FFF746FC19498889FFF73FFC2012FA
:100E6000FFF73FFCE0B2FFF73CFC93E013488088BB
:100E7000A0F5AA41103927D110494889FFF72EFC67
:100E80001812FFF72EFC0D494989491C88B2FFF75B
:100E900025FCD8B2FFF725FC08498889FFF71EFC1E
:100EA0002012FFF71EFC05498989491C88B2FFF70B
:100EB00015FCE0B2FFF715FC6CE00000BC0200205E
:100EC000160000200008006CFC488088A0F5C8517E
:100ED000633928D1F948807920B9F8480088401E44
:100EE000C01A83B2F5494889FFF7F8FB1812FFF7DB
:100EF000F8FBD8B2FFF7F5FB1812FFF7F2FBD8B2F8
:100F0000FFF7EFFBED498889FFF7E8FB2012FFF7B9
:100F1000E8FBE0B2FFF7E5FB2012FFF7E2FBE0B2EF
:100F2000FFF7DFFB36E0E5488088A0F5D0410439C3
:100F30001DD1E2488079012804D1E0480088401E94
:100F4000C01A83B2DD494889FFF7C8FB1812FFF7C2
:100F5000C8FBD8B2FFF7C5FBD8498889FFF7BEFBAD
:100F60002012FFF7BEFBE0B2FFF7BBFB12E0D34855
:100F70008079012804D1D1480088401EC01A83B26C
:100F8000CE4948891946FFF7B8FBCC4988892146E4
:100F9000FFF7B3FBC9480089C9490880881C058050
:100FA00030BD2DE9F0470446BE20FFF797FB052032
:100FB000FFF797FB204613F05DFF07464FF06632C0
:100FC000C04B13F0A7FF054613F010FF1FFA80F97E
:100FD0004846FFF786FB0120FFF783FBFF20FFF762
:100FE00080FB0020FFF77DFB0020FFF77AFBBDE8C8
:100FF000F08710B50446002C66D1B0498871F02006
:1010000008804FF4A070488008468088A0F51341FE
:1010100041390BD0A9488088A0F5D041043905D0CA
:10102000A6488088A0F5A64110391AD12C20A349E2
:1010300008812A2048812B20888108468088A0F5D5
:10104000D041043905D09D488088A0F5A6411039CB
:1010500006D14FF4A070994908804FF4F070488091
:10106000A1E096488088A0F5AA41103910D14FF42C
:101070003050924908814FF4285048814FF42C5049
:1010800088814FF4F07008804FF4487048808AE0FF
:101090008A488088A0F5C85163390DD12C20874932
:1010A00008812B2048812A2088814FF4F070088025
:1010B0004FF44870488076E0222080490881202043
:1010C0004881212088816EE001207C4988714FF49D
:1010D000A0700880F020488008468088A0F5134161
:1010E000413905D075488088A0F5A641103907D14F
:1010F0002C20724908812A2048812B2088813FE0DA
:101100006E488088A0F5D041043907D12C206B4966
:1011100008812B2048812A20888131E06748808817
:10112000A0F5AA41103910D14FF43050634908811D
:101130004FF4285048814FF42C5088814FF4487068
:1011400008804FF4F07048801AE05C488088A0F571
:10115000C85163390DD12C20584908812A20488173
:101160002B2088814FF4487008804FF4F07048803D
:1011700006E02220514908812120488120208881D1
:101180004E488088A0F5D041043905D04B4880886E
:10119000A0F5A641103906D14FF4F07047490880F8
:1011A0004FF4A07048800020FFF7B9FC10BD2DE976
:1011B000F04F86B004460D469046994604EB080071
:1011C000401E86B205EB0900401E87B23B4880886E
:1011D000A0F51341413915D038488088A0F5A641C3
:1011E00010390FD035488088A0F5D041043909D096
:1011F00032488079012826D130488088A0F5C8512E
:10120000633920D12D494889FFF768FA2012FFF78A
:1012100068FAE0B2FFF765FA3012FFF762FAF0B24F
:10122000FFF75FFA25498889FFF758FA2812FFF778
:1012300058FAE8B2FFF755FA3812FFF752FAF8B247
:10124000FFF74FFABEE01D488088A0F5C85163390A
:101250003AD11A480088A0EB0800001B84B205EBC5
:101260000900401E1FFA80F914494889FFF736FA31
:101270002012FFF736FAE0B2FFF733FA04EB080169
:10128000491EC1F30F20FFF72CFA04EB0801491E99
:10129000C8B2FFF726FA09498889FFF71FFA281212
:1012A000FFF71FFAE8B2FFF71CFA4FEA2920FFF711
:1012B00018FA09F0FF00FFF714FA83E0BC020020DF
:1012C000FE07006C66660440FE488088A0F5AA41CF
:1012D000103944D1FB494889FFF700FA2012FFF783
:1012E00000FAF8494989491C88B2FFF7F7F9E0B2DA
:1012F000FFF7F7F9F3494989891C88B2FFF7EEF93E
:101300003012FFF7EEF9EF494989C91C88B2FFF79F
:10131000E5F9F0B2FFF7E5F9EA498889FFF7DEF968
:101320002812FFF7DEF9E7498989491C88B2FFF7DF
:10133000D5F9E8B2FFF7D5F9E2498989891C88B265
:10134000FFF7CCF93812FFF7CCF9DE498989C91CBF
:1013500088B2FFF7C3F9F8B2FFF7C3F932E0D94812
:10136000807901280ED1AA46BB46D6480088801B4A
:10137000401E80B20190D3480088001B401E80B2FE
:10138000009003E0A246B3460195009750200590D7
:10139000512004905220039053200290514605980A
:1013A000FFF7ABF959460498FFF7A7F9019903989D
:1013B000FFF7A3F900990298FFF79FF92946204605
:1013C000FFF7C8F906B0BDE8F08F70B504460026F7
:1013D000BC48058840884543BA488088A0F5D0417C
:1013E000043916D1B7488079012812D10020B549B7
:1013F00088712A2048812B20888100210846FFF728
:10140000A9F90120AF4988712B2048812A208881C1
:1014100003E000210846FFF79DF9FFF77EF900265B
:1014200002E0A9480480761CAE42FAD370BD00B534
:101430009FB00121080209F0A0F901214FF4B47016
:1014400009F0A8F90120ADF8780010208DF87B0094
:1014500003208DF87A001EA99C4808F0E5FE4CF2A6
:101460003370ADF8780018208DF87B0003208DF8DC
:101470007A001EA9964808F0D7FE4FF68070ADF8A6
:10148000780018208DF87B0003208DF87A001EA9C3
:10149000904808F0C9FE41F20100ADF8780018202C
:1014A0008DF87B0003208DF87A001EA98A4808F089
:1014B000BBFE01200890002009900F200A90002018
:1014C0000B900C900D900E900190029003200390D1
:1014D0000020049005900690079006200F900020B1
:1014E00010901190102012900020139015901490DD
:1014F000169017904FF480501890002019904FF4D8
:1015000080401A9000201B9008A81C9001A81D90F4
:101510000FA808F06CFB0121062008F0C9FC32205E
:1015200008F0B8F90020FFF7EDF866498880084612
:101530008088FF280ADB08468088A0F57F41FF39B4
:1015400004D060488088B0F5134F7CD1D320FFF7DA
:10155000C5F8FFF7CAF85B498880FFF7C6F8594914
:101560008880FFF7C2F857498880084680884FF680
:10157000FF7101EA002053498880FFF7B6F851490E
:10158000898808434F49888008468088A0F5134120
:10159000413958D0BF20FFF7A1F8FFF7A6F8494915
:1015A0008880FFF7A2F847498880FFF79EF84549F1
:1015B0008880FFF79AF843498880084680884FF66C
:1015C000FF7101EA00203F498880FFF78EF83D490E
:1015D000898808433B49888008468088A0F5D04127
:1015E000043930D0D420FFF779F8FFF77EF8354979
:1015F0008880FFF77AF833498880FFF776F8314919
:101600008880084680884FF6FF7101EA00202D4946
:101610008880FFF76AF82B49898808432949888020
:1016200008468088A0F5A641103963D04FF45A408F
:10163000FFF754F8FFF759F8224988804FF45B40D0
:10164000FFF74CF800E055E0FFF74FF81D498880A0
:10165000084680884FF6FF7101EA0020194988800A
:101660004FF45C40FFF73AF8FFF73FF815498988D7
:1016700008431449888008468088B0F5004F02D19D
:1016800045F2105088800F488088A0F5AA41103993
:1016900030D0A120FFF722F8FFF727F8094988800A
:1016A000FFF723F807498880084680884FF6FF71C6
:1016B00001EA002003498880FFF717F8014989886B
:1016C00008430BE0BC0200200008006C000C014045
:1016D000001401400018014000200140FE498880AC
:1016E00008468088A0F5AE41613903D141F6631008
:1016F000F9498880F8488188F8A011F059FCF6482B
:101700008088A0F5134141397ED1CF20FEF7E6FF56
:101710000020FEF7E6FFC120FEF7E3FF3020FEF7D2
:10172000E0FFED20FEF7DAFF6420FEF7DAFF03208A
:10173000FEF7D7FF1220FEF7D4FF8120FEF7D1FF7E
:10174000E820FEF7CBFF8520FEF7CBFF1020FEF749
:10175000C8FF7A20FEF7C5FFCB20FEF7BFFF392078
:10176000FEF7BFFF2C20FEF7BCFF0020FEF7B9FFFD
:101770003420FEF7B6FF0220FEF7B3FFF720FEF796
:10178000ADFF2020FEF7ADFFEA20FEF7A7FF002007
:10179000FEF7A7FF0020FEF7A4FFC020FEF79EFF84
:1017A0001B20FEF79EFFC120FEF798FF0120FEF7E9
:1017B00098FFC520FEF792FF3020FEF792FF302001
:1017C000FEF78FFFC720FEF789FFB720FEF789FFDE
:1017D0003620FEF783FF4820FEF783FF3A20FEF70E
:1017E0007DFF5520FEF77DFFB120FEF777FF00203B
:1017F000FEF777FF1A20FEF774FFB620FEF76EFFA4
:101800000A20FEF76EFF00E097E0A220FEF769FFD6
:10181000F220FEF763FF0020FEF763FF2620FEF7AD
:101820005DFF0120FEF75DFFE020FEF757FF0F2070
:10183000FEF757FF2A20FEF754FF2820FEF751FF3E
:101840000820FEF74EFF0E20FEF74BFF0820FEF7A4
:1018500048FF5420FEF745FFA920FEF742FF432032
:10186000FEF73FFF0A20FEF73CFF0F20FEF739FF8F
:101870000020FEF736FF0020FEF733FF0020FEF7C2
:1018800030FF0020FEF72DFFE120FEF727FF0020AC
:10189000FEF727FF1520FEF724FF1720FEF721FF94
:1018A0000720FEF71EFF1120FEF71BFF0620FEF7A4
:1018B00018FF2B20FEF715FF5620FEF712FF3C20E5
:1018C000FEF70FFF0520FEF70CFF1020FEF709FFC3
:1018D0000F20FEF706FF3F20FEF703FF3F20FEF735
:1018E00000FF0F20FEF7FDFE2B20FEF7F7FE002085
:1018F000FEF7F7FE0020FEF7F4FE0120FEF7F1FEF2
:101900003F20FEF7EEFE2A20FEF7E8FE0020FEF75D
:10191000E8FE0020FEF7E5FE0020FEF7E2FEEF20E5
:10192000FEF7DFFE1120FEF7D9FE782007F0B2FFA8
:101930002920FEF7D3FE03F021B967488088A0F57F
:10194000D04104397ED11120FEF7C8FE142007F0E3
:10195000A1FFD020FEF7C2FE0720FEF7C2FE422004
:10196000FEF7BFFE1D20FEF7BCFED120FEF7B6FE3F
:101970000020FEF7B6FE1A20FEF7B3FE0920FEF7A0
:10198000B0FED220FEF7AAFE0120FEF7AAFE22201A
:10199000FEF7A7FEC020FEF7A1FE1020FEF7A1FE75
:1019A0003B20FEF79EFE0020FEF79BFE0220FEF786
:1019B00098FE1120FEF795FEC520FEF78FFE03204E
:1019C000FEF78FFEC820FEF789FE0020FEF789FE95
:1019D0002520FEF786FE2120FEF783FE0520FEF778
:1019E00080FE0020FEF77DFE0A20FEF77AFE6520CD
:1019F000FEF777FE2520FEF774FE7720FEF771FED6
:101A00005020FEF76EFE0F20FEF76BFE0020FEF763
:101A100068FEF820FEF762FE0120FEF762FEFE205F
:101A2000FEF75CFE0020FEF75CFE0220FEF759FE8A
:101A30002020FEF753FE3620FEF750FE0820FEF76A
:101A400050FE00E02AE03A20FEF748FE5520FEF75F
:101A500048FE2B20FEF742FE0020FEF742FE00204B
:101A6000FEF73FFE0120FEF73CFE3F20FEF739FE69
:101A70002A20FEF733FE0020FEF733FE0020FEF79B
:101A800030FE0120FEF72DFEDF20FEF72AFE782033
:101A900007F000FF2920FEF721FE4CE70E48808862
:101AA000A0F5A641103940F08487ED20FEF716FE20
:101AB0000120FEF716FEFE20FEF713FEEE20FEF7D5
:101AC0000DFEDE20FEF70DFE2120FEF70AFEF120BE
:101AD000FEF704FE012009E0BC020020204C434434
:101AE0002049443A25780D0A00000000FEF7F9FD70
:101AF000DF20FEF7F3FD1020FEF7F3FDC420FEF714
:101B0000EDFD8F20FEF7EDFDC620FEF7E7FD00207E
:101B1000FEF7E7FDE220FEF7E4FDE220FEF7E1FD3F
:101B2000E220FEF7DEFDBF20FEF7D8FDAA20FEF77B
:101B3000D8FDB020FEF7D2FD0D20FEF7D2FD00202B
:101B4000FEF7CFFD0D20FEF7CCFD0020FEF7C9FD0E
:101B50001120FEF7C6FD0020FEF7C3FD1920FEF799
:101B6000C0FD0020FEF7BDFD2120FEF7BAFD0020DC
:101B7000FEF7B7FD2D20FEF7B4FD0020FEF7B1FD06
:101B80003D20FEF7AEFD0020FEF7ABFD5D20FEF729
:101B9000A8FD0020FEF7A5FD5D20FEF7A2FD0020B8
:101BA000FEF79FFDB120FEF799FD8020FEF799FD1D
:101BB0000020FEF796FD8B20FEF793FD0020FEF738
:101BC00090FD9620FEF78DFD0020FEF78AFDB220E5
:101BD000FEF784FD0020FEF784FD0020FEF781FD66
:101BE0000220FEF77EFD0020FEF77BFD0320FEF7BE
:101BF00078FD0020FEF775FDB320FEF76FFD002095
:101C0000FEF76FFD0020FEF76CFD0020FEF769FD7A
:101C10000020FEF766FD0020FEF763FD0020FEF7C2
:101C200060FD0020FEF75DFD0020FEF75AFD00205C
:101C3000FEF757FD0020FEF754FD0020FEF751FD92
:101C40000020FEF74EFD0020FEF74BFD0020FEF7C2
:101C500048FD0020FEF745FD0020FEF742FD002074
:101C6000FEF73FFD0020FEF73CFD0020FEF739FDAA
:101C70000020FEF736FD0020FEF733FD0020FEF7C2
:101C800030FD0020FEF72DFD0020FEF72AFDB420D8
:101C9000FEF724FD8B20FEF724FD0020FEF721FD3A
:101CA0009620FEF71EFD0020FEF71BFDA120FEF78B
:101CB00018FD0020FEF715FDB520FEF70FFD0220F0
:101CC000FEF70FFD0020FEF70CFD0320FEF709FDD7
:101CD0000020FEF706FD0420FEF703FD0020FEF7BE
:101CE00000FDB620FEF7FAFC0020FEF7FAFC00200B
:101CF000FEF7F7FCB720FEF7F1FC0020FEF7F1FC41
:101D00000020FEF7EEFC3F20FEF7EBFC0020FEF784
:101D1000E8FC5E20FEF7E5FC0020FEF7E2FC642014
:101D2000FEF7DFFC0020FEF7DCFC8C20FEF7D9FC80
:101D30000020FEF7D6FCAC20FEF7D3FC0020FEF717
:101D4000D0FCDC20FEF7CDFC0020FEF7CAFC7020A2
:101D5000FEF7C7FC0020FEF7C4FC9020FEF7C1FC94
:101D60000020FEF7BEFCEB20FEF7BBFC0020FEF7D8
:101D7000B8FCDC20FEF7B5FC0020FEF7B2FCB82072
:101D8000FEF7ACFC0020FEF7ACFC0020FEF7A9FC3F
:101D90000020FEF7A6FC0020FEF7A3FC0020FEF7C3
:101DA000A0FC0020FEF79DFC0020FEF79AFC00201E
:101DB000FEF797FCBA20FEF791FC2420FEF791FC79
:101DC0000020FEF78EFC0020FEF78BFC0020FEF7C3
:101DD00088FCC120FEF782FC2020FEF782FC002058
:101DE000FEF77FFC5420FEF77CFC0020FEF779FC18
:101DF000FF20FEF776FC0020FEF773FCC220FEF702
:101E00006DFC0A20FEF76DFC0020FEF76AFC042042
:101E1000FEF767FC0020FEF764FCC320FEF75EFCC3
:101E20003C20FEF75EFC0020FEF75BFC3A20FEF74C
:101E300058FC0020FEF755FC3920FEF752FC00202C
:101E4000FEF74FFC3720FEF74CFC0020FEF749FC64
:101E50003C20FEF746FC0020FEF743FC3620FEF750
:101E600040FC0020FEF73DFC3220FEF73AFC00204B
:101E7000FEF737FC2F20FEF734FC0020FEF731FC84
:101E80002C20FEF72EFC0020FEF72BFC2920FEF76D
:101E900028FC0020FEF725FC2620FEF722FC00206F
:101EA000FEF71FFC2420FEF71CFC0020FEF719FCA7
:101EB0002420FEF716FC0020FEF713FC2320FEF77B
:101EC00010FC0020FEF70DFC3C20FEF70AFC002071
:101ED000FEF707FC3620FEF704FC0020FEF701FCAD
:101EE0003220FEF7FEFB0020FEF7FBFB2F20FEF763
:101EF000F8FB0020FEF7F5FB2C20FEF7F2FB00209C
:101F0000FEF7EFFB2920FEF7ECFB0020FEF7E9FBD4
:101F10002620FEF7E6FB0020FEF7E3FB2420FEF779
:101F2000E0FB0020FEF7DDFB2420FEF7DAFB0020BB
:101F3000FEF7D7FB2320FEF7D4FB0020FEF7D1FBF2
:101F4000C420FEF7CBFB6220FEF7CBFB0020FEF7A0
:101F5000C8FB0520FEF7C5FB0020FEF7C2FB84206E
:101F6000FEF7BFFB0020FEF7BCFBF020FEF7B9FB3D
:101F70000020FEF7B6FB1820FEF7B3FB0020FEF7AB
:101F8000B0FBA420FEF7ADFB0020FEF7AAFB182053
:101F9000FEF7A7FB0020FEF7A4FB5020FEF7A1FBF5
:101FA0000020FEF79EFB0C20FEF79BFB0020FEF7B7
:101FB00098FB1720FEF795FB0020FEF792FB95207B
:101FC000FEF78FFB0020FEF78CFBF320FEF789FB6A
:101FD0000020FEF786FBE620FEF783FB0020FEF7DD
:101FE00080FBC520FEF77AFB3220FEF77AFB00204B
:101FF000FEF777FB4420FEF774FB0020FEF771FB31
:102000006520FEF76EFB0020FEF76BFB7620FEF7E7
:1020100068FB0020FEF765FB8820FEF762FB0020CE
:10202000FEF75FFBC620FEF759FB2020FEF759FBA9
:102030000020FEF756FB1720FEF753FB0020FEF7AB
:1020400050FB0120FEF74DFB0020FEF74AFBC720A6
:10205000FEF744FB0020FEF744FB0020FEF741FBA7
:102060000020FEF73EFB0020FEF73BFBC820FEF7FA
:1020700035FB0020FEF735FB0020FEF732FB002089
:10208000FEF72FFB0020FEF72CFBC920FEF726FBF6
:102090000020FEF726FB0020FEF723FB0020FEF7C2
:1020A00020FB0020FEF71DFB0020FEF71AFB00209E
:1020B000FEF717FB0020FEF714FB0020FEF711FBD4
:1020C0000020FEF70EFB0020FEF70BFB0020FEF7C2
:1020D00008FB0020FEF705FB0020FEF702FB0020B6
:1020E000FEF7FFFA0020FEF7FCFA0020FEF7F9FAEF
:1020F000E020FEF7F3FA1620FEF7F3FA0020FEF7D1
:10210000F0FA1C20FEF7EDFA0020FEF7EAFA212093
:10211000FEF7E7FA0020FEF7E4FA3620FEF7E1FAD0
:102120000020FEF7DEFA4620FEF7DBFA0020FEF77D
:10213000D8FA5220FEF7D5FA0020FEF7D2FA642032
:10214000FEF7CFFA0020FEF7CCFA7A20FEF7C9FAA4
:102150000020FEF7C6FA8B20FEF7C3FA0020FEF738
:10216000C0FA9920FEF7BDFA0020FEF7BAFAA820BF
:10217000FEF7B7FA0020FEF7B4FAB920FEF7B1FA7D
:102180000020FEF7AEFAC420FEF7ABFA0020FEF7FF
:10219000A8FACA20FEF7A5FA0020FEF7A2FAD2207C
:1021A000FEF79FFA0020FEF79CFAD920FEF799FA75
:1021B0000020FEF796FAE020FEF793FA0020FEF7E3
:1021C00090FAF320FEF78DFA0020FEF78AFAE1205C
:1021D000FEF784FA1620FEF784FA0020FEF781FA53
:1021E0001C20FEF77EFA0020FEF77BFA2220FEF785
:1021F00078FA0020FEF775FA3620FEF772FA002012
:10220000FEF76FFA4520FEF76CFA0020FEF769FA38
:102210005220FEF766FA0020FEF763FA6420FEF70C
:1022200060FA0020FEF75DFA7A20FEF75AFA0020E5
:10223000FEF757FA8B20FEF754FA0020FEF751FA0A
:102240009920FEF74EFA0020FEF74BFAA820FEF781
:1022500048FA0020FEF745FAB920FEF742FA0020BE
:10226000FEF73FFAC420FEF73CFA0020FEF739FAE9
:10227000CA20FEF736FA0020FEF733FAD220FEF726
:1022800030FA0020FEF72DFAD820FEF72AFA0020B7
:10229000FEF727FAE020FEF724FA0020FEF721FAE5
:1022A000F320FEF71EFA0020FEF71BFAE220FEF7ED
:1022B00015FA0520FEF715FA0020FEF712FA0B209A
:1022C000FEF70FFA0020FEF70CFA1B20FEF709FAC2
:1022D0000020FEF706FA3420FEF703FA0020FEF78E
:1022E00000FA4420FEF7FDF90020FEF7FAF94F202E
:1022F000FEF7F7F90020FEF7F4F96120FEF7F1F997
:102300000020FEF7EEF97920FEF7EBF90020FEF74A
:10231000E8F98820FEF7E5F90020FEF7E2F99720BA
:10232000FEF7DFF90020FEF7DCF9A620FEF7D9F969
:102330000020FEF7D6F9B720FEF7D3F90020FEF70C
:10234000D0F9C220FEF7CDF90020FEF7CAF9C72068
:10235000FEF7C7F90020FEF7C4F9D120FEF7C1F956
:102360000020FEF7BEF9D620FEF7BBF90020FEF7ED
:10237000B8F9DD20FEF7B5F90020FEF7B2F9F32039
:10238000FEF7AFF90020FEF7ACF9E320FEF7A6F95F
:102390000520FEF7A6F90020FEF7A3F90A20FEF7B4
:1023A000A0F90020FEF79DF91C20FEF79AF9002005
:1023B000FEF797F93320FEF794F90020FEF791F924
:1023C0004420FEF78EF90020FEF78BF95020FEF72F
:1023D00088F90020FEF785F96220FEF782F90020D7
:1023E000FEF77FF97820FEF77CF90020FEF779F9F7
:1023F0008820FEF776F90020FEF773F99720FEF7A4
:1024000070F90020FEF76DF9A620FEF76AF90020AA
:10241000FEF767F9B720FEF764F90020FEF761F9CF
:10242000C220FEF75EF90020FEF75BF9C720FEF739
:1024300058F90020FEF755F9D120FEF752F9002097
:10244000FEF74FF9D520FEF74CF90020FEF749F9C9
:10245000DD20FEF746F90020FEF743F9F320FEF7F2
:1024600040F90020FEF73DF9E420FEF737F901209E
:10247000FEF737F90020FEF734F90120FEF731F9B5
:102480000020FEF72EF90220FEF72BF90020FEF7C0
:1024900028F92A20FEF725F90020FEF722F93C2032
:1024A000FEF71FF90020FEF71CF94B20FEF719F983
:1024B0000020FEF716F95D20FEF713F90020FEF765
:1024C00010F97420FEF70DF90020FEF70AF98420B8
:1024D000FEF707F90020FEF704F99320FEF701F953
:1024E0000020FEF7FEF8A220FEF7FBF80020FEF722
:1024F000F8F8B320FEF7F5F80020FEF7F2F8BE205A
:10250000FEF7EFF80020FEF7ECF8C420FEF7E9F83C
:102510000020FEF7E6F8CD20FEF7E3F80020FEF7F6
:10252000E0F8D320FEF7DDF80020FEF7DAF8DD2032
:10253000FEF7D7F80020FEF7D4F8F320FEF7D1F825
:102540000020FEF7CEF8E520FEF7C8F80020FEF7E1
:10255000C8F80020FEF7C5F80020FEF7C2F80020FA
:10256000FEF7BFF80220FEF7BCF80020FEF7B9F82E
:102570002920FEF7B6F80020FEF7B3F83C20FEF75E
:10258000B0F80020FEF7ADF84B20FEF7AAF80020C7
:10259000FEF7A7F85D20FEF7A4F80020FEF7A1F8EB
:1025A0007420FEF79EF80020FEF79BF88420FEF7CB
:1025B00098F80020FEF795F89320FEF792F8002097
:1025C000FEF78FF8A220FEF78CF80020FEF789F8BE
:1025D000B320FEF786F80020FEF783F8BE20FEF752
:1025E00080F80020FEF77DF8C420FEF77AF800207E
:1025F000FEF777F8CD20FEF774F80020FEF771F8AB
:10260000D320FEF76EF80020FEF76BF8DC20FEF713
:1026100068F80020FEF765F8F320FEF762F8002066
:10262000FEF75FF8E620FEF759F81120FEF759F89B
:102630000020FEF756F83420FEF753F80020FEF78E
:1026400050F85620FEF74DF80020FEF74AF87620A5
:10265000FEF747F80020FEF744F87720FEF741F830
:102660000020FEF73EF86620FEF73BF80020FEF75C
:1026700038F88820FEF735F80020FEF732F8992068
:10268000FEF72FF80020FEF72CF8BB20FEF729F804
:102690000020FEF726F89920FEF723F80020FEF729
:1026A00020F86620FEF71DF80020FEF71AF85520E6
:1026B000FEF717F80020FEF714F85520FEF711F882
:1026C0000020FEF70EF84520FEF70BF80020FEF77D
:1026D00008F84320FEF705F80020FEF702F8442032
:1026E000FDF7FFFF0020FDF7FCFFE720FDF7F6FFF9
:1026F0003220FDF7F6FF0020FDF7F3FF5520FDF730
:10270000F0FF0020FDF7EDFF7620FDF7EAFF002047
:10271000FDF7E7FF6620FDF7E4FF0020FDF7E1FF8E
:102720006720FDF7DEFF0020FDF7DBFF6720FDF7E8
:10273000D8FF0020FDF7D5FF8720FDF7D2FF00204E
:10274000FDF7CFFF9920FDF7CCFF0020FDF7C9FF73
:10275000BB20FDF7C6FF0020FDF7C3FF9920FDF762
:10276000C0FF0020FDF7BDFF7720FDF7BAFF002076
:10277000FDF7B7FF4420FDF7B4FF0020FDF7B1FFE0
:102780005620FDF7AEFF0020FDF7ABFF2320FDF73D
:10279000A8FF0020FDF7A5FF3320FDF7A2FF0020D2
:1027A000FDF79FFF4520FDF79CFF0020FDF799FFF7
:1027B000E820FDF793FF0020FDF793FF0020FDF7D1
:1027C00090FF9920FDF78DFF0020FDF78AFF8720FD
:1027D000FDF787FF0020FDF784FF8820FDF781FFCC
:1027E0000020FDF77EFF7720FDF77BFF0020FDF73F
:1027F00078FF6620FDF775FF0020FDF772FF882047
:10280000FDF76FFF0020FDF76CFFAA20FDF769FFC1
:102810000020FDF766FFBB20FDF763FF0020FDF7FA
:1028200060FF9920FDF75DFF0020FDF75AFF66204D
:10283000FDF757FF0020FDF754FF5520FDF751FF2E
:102840000020FDF74EFF5520FDF74BFF0020FDF760
:1028500048FF4420FDF745FF0020FDF742FF4420DC
:10286000FDF73FFF0020FDF73CFF5520FDF739FF46
:102870000020FDF736FFE920FDF730FFAA20FDF725
:1028800030FF0020FDF72DFF0020FDF72AFF00207C
:10289000FDF727FF0020FDF721FFAA20FDF721FF0C
:1028A000CF20FDF71BFF0020FDF71BFF0020FDF7E9
:1028B00018FF0020FDF715FF0020FDF712FF002094
:1028C000FDF70FFF0020FDF70CFF0020FDF709FFCB
:1028D0000020FDF706FF0020FDF703FF0020FDF7B5
:1028E00000FF0020FDF7FDFE0020FDF7FAFE0020AE
:1028F000FDF7F7FE0020FDF7F4FE0020FDF7F1FEE6
:102900000020FDF7EEFE0020FDF7EBFEF020FDF7C6
:10291000E5FE0020FDF7E5FE5020FDF7E2FE002079
:10292000FDF7DFFE0020FDF7DCFE0020FDF7D9FEFD
:10293000F320FDF7D3FE0020FDF7D3FEF920FDF7CD
:10294000CDFE0620FDF7CDFE1020FDF7CAFE2920A2
:10295000FDF7C7FE0020FDF7C4FE3A20FDF7BEFEDE
:102960005520FDF7BEFE1120FDF7B8FE642006F0ED
:1029700091FF2920FDF7B2FE3520FDF7AFFE0020C4
:10298000FDF7AFFE5120FDF7A9FEFF20FDF7A9FEE0
:102990005320FDF7A3FE2C20FDF7A3FE5520FDF7E5
:1029A0009DFE8220FDF79DFE2C20FDF797FE02F094
:1029B000E5B8FE488088A0F5AA4110397ED155219E
:1029C0004FF47040FDF799FEAA214FF20100FDF788
:1029D00094FE52214FF20200FDF78FFE08214FF2C4
:1029E0000300FDF78AFE01214FF20400FDF785FE8A
:1029F0000D214FF43040FDF780FE0D214BF2010018
:102A0000FDF77BFE0D214BF20200FDF776FE34212F
:102A10004FF43640FDF771FE34214BF20160FDF7B3
:102A20006CFE34214BF20260FDF767FE0D214FF47E
:102A30003140FDF762FE0D214BF20110FDF75DFE06
:102A40000D214BF20210FDF758FE34214FF43740B0
:102A5000FDF753FE34214BF20170FDF74EFE342199
:102A60004BF20270FDF749FE00214FF43240FDF7B2
:102A700044FE00214BF20120FDF73FFE00214BF206
:102A80000220FDF73AFE24214FF43840FDF735FED1
:102A900024214BF60100FDF730FE24214BF6020005
:102AA000FDF72BFE01214FF43F40FDF726FE0F21DD
:102AB0004FF43340FDF721FE0F2100E0FEE34BF21F
:102AC0000130FDF71AFE0F214BF20230FDF715FE23
:102AD00034214FF43940FDF710FE34214BF601103C
:102AE000FDF70BFE34214BF60210FDF706FE082120
:102AF0004FF43540FDF701FE08214BF20150FDF780
:102B0000FCFD08214BF20250FDF7F7FD03214FF4C5
:102B10004240FDF7F2FD24214FF43A40FDF7EDFD70
:102B200024214BF60120FDF7E8FD24214BF602207D
:102B3000FDF7E3FD00214FF43C40FDF7DEFD782179
:102B40004BF60140FDF7D9FD00214BF60240FDF7A1
:102B5000D4FD00214FF43D40FDF7CFFD78214BF629
:102B60000150FDF7CAFD00214BF60250FDF7C5FDEF
:102B700000214FF43E40FDF7C0FD64214BF601609B
:102B8000FDF7BBFD00214FF45140FDF7B6FD3321A9
:102B90004DF20110FDF7B1FD00214DF20210FDF7DD
:102BA000ACFD34214DF20310FDF7A7FD00214DF2DD
:102BB0000410FDF7A2FD3A214DF20510FDF79DFD31
:102BC00000214DF20610FDF798FD4A214DF2071045
:102BD000FDF793FD00214DF20810FDF78EFD5C21FD
:102BE0004DF20910FDF789FD00214DF20A10FDF7A5
:102BF00084FD81214DF20B10FDF77FFD00214DF288
:102C00000C10FDF77AFDA6214DF20D10FDF775FDB4
:102C100000214DF20E10FDF770FDE5214DF20F1071
:102C2000FDF76BFD01214DF21010FDF766FD13213C
:102C30004DF21110FDF761FD01214DF21210FDF76B
:102C40005CFD54214DF21310FDF757FD01214DF2AB
:102C50001410FDF752FD82214DF21510FDF74DFDC8
:102C600001214DF21610FDF748FDCA214DF2171053
:102C7000FDF743FD02214DF21810FDF73EFD002146
:102C80004DF21910FDF739FD02214DF21A10FDF732
:102C900034FD01214DF21B10FDF72FFD02214DF2F5
:102CA0001C10FDF72AFD34214DF21D10FDF725FD06
:102CB00002214DF21E10FDF720FD67214DF21F107D
:102CC000FDF71BFD02214DF22010FDF716FD8421BA
:102CD0004DF22110FDF711FD02214DF22210FDF7FA
:102CE0000CFDA4214DF22310FDF707FD02214DF24A
:102CF0002410FDF702FDB7214DF22510FDF7FDFC74
:102D000002214DF22610FDF7F8FCCF214DF22710DD
:102D1000FDF7F3FC02214DF22810FDF7EEFCDE2159
:102D20004DF22910FDF7E9FC02214DF22A10FDF7C2
:102D3000E4FCF2214DF22B10FDF7DFFC02214DF2F5
:102D40002C10FDF7DAFCFE214DF22D10FDF7D5FC1D
:102D500003214DF22E10FDF7D0FC10214DF22F1063
:102D6000FDF7CBFC03214DF23010FDF7C6FC3321FB
:102D70004DF23110FDF7C1FC03214DF23210FDF789
:102D8000BCFC6D214DF23310FDF7B7FC00214FF470
:102D90005240FDF7B2FC33214DF20120FDF7ADFCAE
:102DA00000214DF20220FDF7A8FC01E0BC0200204A
:102DB00034214DF20320FDF7A0FC00214DF2042048
:102DC000FDF79BFC3A214DF20520FDF796FC002112
:102DD0004DF20620FDF791FC4A214DF20720FDF748
:102DE0008CFC00214DF20820FDF787FC5C214DF2A0
:102DF0000920FDF782FC00214DF20A20FDF77DFC41
:102E000081214DF20B20FDF778FC00214DF20C20C2
:102E1000FDF773FCA6214DF20D20FDF76EFC00219D
:102E20004DF20E20FDF769FCE5214DF20F20FDF774
:102E300064FC01214DF21020FDF75FFC13214DF2DF
:102E40001120FDF75AFC01214DF21220FDF755FC2F
:102E500054214DF21320FDF750FC01214DF21420B6
:102E6000FDF74BFC82214DF21520FDF746FC0121B8
:102E70004DF21620FDF741FCCA214DF21720FDF757
:102E80003CFC02214DF21820FDF737FC00214DF2E9
:102E90001920FDF732FC02214DF21A20FDF72DFC1E
:102EA00001214DF21B20FDF728FC02214DF21C20D0
:102EB000FDF723FC34214DF21D20FDF71EFC0221FD
:102EC0004DF21E20FDF719FC67214DF21F20FDF782
:102ED00014FC02214DF22020FDF70FFC84214DF25D
:102EE0002120FDF70AFC02214DF22220FDF705FC0E
:102EF000A4214DF22320FDF700FC02214DF22420F5
:102F0000FDF7FBFBB7214DF22520FDF7F6FB022173
:102F10004DF22620FDF7F1FBCF214DF22720FDF7E2
:102F2000ECFB02214DF22820FDF7E7FBDE214DF2FC
:102F30002920FDF7E2FB02214DF22A20FDF7DDFBFF
:102F4000F2214DF22B20FDF7D8FB02214DF22C206F
:102F5000FDF7D3FBFE214DF22D20FDF7CEFB032123
:102F60004DF22E20FDF7C9FB10214DF22F20FDF769
:102F7000C4FB03214DF23020FDF7BFFB33214DF29E
:102F80003120FDF7BAFB03214DF23220FDF7B5FBEE
:102F90006D214DF23320FDF7B0FB00214FF453407B
:102FA000FDF7ABFB33214DF20130FDF7A6FB00210D
:102FB0004DF20230FDF7A1FB34214DF20330FDF755
:102FC0009CFB00214DF20430FDF797FB3A214DF2B6
:102FD0000530FDF792FB00214DF20630FDF78DFB29
:102FE0004A214DF20730FDF788FB00214DF20830F1
:102FF000FDF783FB5C214DF20930FDF77EFB0021DC
:103000004DF20A30FDF779FB81214DF20B30FDF7CF
:1030100074FB00214DF20C30FDF76FFBA6214DF241
:103020000D30FDF76AFB00214DF20E30FDF765FB18
:10303000E5214DF20F30FDF760FB01214DF210301C
:10304000FDF75BFB13214DF21130FDF756FB01211B
:103050004DF21230FDF751FB54214DF21330FDF7C4
:103060004CFB01214DF21430FDF747FB82214DF25C
:103070001530FDF742FB01214DF21630FDF73DFB07
:10308000CA214DF21730FDF738FB02214DF21830FE
:10309000FDF733FB00214DF21930FDF72EFB022125
:1030A0004DF21A30FDF729FB01214DF21B30FDF7DF
:1030B00024FB02214DF21C30FDF71FFB34214DF2A1
:1030C0001D30FDF71AFB02214DF21E30FDF715FBF6
:1030D00067214DF21F30FDF710FB02214DF2203029
:1030E000FDF70BFB84214DF22130FDF706FB022199
:1030F0004DF22230FDF701FBA4214DF22330FDF704
:10310000FCFA02214DF22430FDF7F7FAB7214DF217
:103110002530FDF7F2FA02214DF22630FDF7EDFAE7
:10312000CF214DF22730FDF7E8FA02214DF2283089
:10313000FDF7E3FADE214DF22930FDF7DEFA022138
:103140004DF22A30FDF7D9FAF2214DF22B30FDF77E
:10315000D4FA02214DF22C30FDF7CFFAFE214DF2C8
:103160002D30FDF7CAFA03214DF22E30FDF7C5FAD6
:1031700010214DF22F30FDF7C0FA03214DF230300F
:10318000FDF7BBFA33214DF23130FDF7B6FA0321DA
:103190004DF23230FDF7B1FA6D214DF23330FDF7CB
:1031A000ACFA00214FF45440FDF7A7FA33214DF259
:1031B0000140FDF7A2FA00214DF20240FDF79DFA11
:1031C00034214DF20340FDF798FA00214DF20440FE
:1031D000FDF793FA3A214DF20540FDF78EFA0021F2
:1031E0004DF20640FDF789FA4A214DF20740FDF7FE
:1031F00084FA00214DF20840FDF77FFA5C214DF280
:103200000940FDF77AFA00214DF20A40FDF775FA00
:1032100081214DF20B40FDF770FA00214DF20C4078
:10322000FDF76BFAA6214DF20D40FDF766FA00217D
:103230004DF20E40FDF761FAE5214DF20F40FDF72A
:103240005CFA01214DF21040FDF757FA13214DF2BF
:103250001140FDF752FA01214DF21240FDF74DFAEF
:1032600054214DF21340FDF748FA01214DF214406C
:10327000FDF743FA82214DF21540FDF73EFA012198
:103280004DF21640FDF739FACA214DF21740FDF70D
:1032900034FA02214DF21840FDF72FFA00214DF2C9
:1032A0001940FDF72AFA02214DF21A40FDF725FADE
:1032B00001214DF21B40FDF720FA00E004E302215A
:1032C0004DF21C40FDF719FA34214DF21D40FDF777
:1032D00014FA02214DF21E40FDF70FFA67214DF25C
:1032E0001F40FDF70AFA02214DF22040FDF705FAD2
:1032F00084214DF22140FDF700FA02214DF22240D7
:10330000FDF7FBF9A4214DF22340FDF7F6F9022168
:103310004DF22440FDF7F1F9B7214DF22540FDF7BC
:10332000ECF902214DF22640FDF7E7F9CF214DF2ED
:103330002740FDF7E2F902214DF22840FDF7DDF9C3
:10334000DE214DF22940FDF7D8F902214DF22A4045
:10335000FDF7D3F9F2214DF22B40FDF7CEF9022112
:103360004DF22C40FDF7C9F9FE214DF22D40FDF73D
:10337000C4F903214DF22E40FDF7BFF910214DF2A3
:103380002F40FDF7BAF903214DF23040FDF7B5F9B2
:1033900033214DF23140FDF7B0F903214DF23240B7
:1033A000FDF7ABF96D214DF23340FDF7A6F9002191
:1033B0004FF45540FDF7A1F933214DF20150FDF7CF
:1033C0009CF900214DF20250FDF797F934214DF29E
:1033D0000350FDF792F900214DF20450FDF78DF9ED
:1033E0003A214DF20550FDF788F900214DF20650C3
:1033F000FDF783F94A214DF20750FDF77EF90021D0
:103400004DF20850FDF779F95C214DF20950FDF7B6
:1034100074F900214DF20A50FDF76FF981214DF248
:103420000B50FDF76AF900214DF20C50FDF765F9DC
:10343000A6214DF20D50FDF760F900214DF20E501E
:10344000FDF75BF9E5214DF20F50FDF756F901212B
:103450004DF21050FDF751F913214DF21150FDF7C7
:103460004CF901214DF21250FDF747F954214DF26C
:103470001350FDF742F901214DF21450FDF73DF9CB
:1034800082214DF21550FDF738F901214DF2165009
:10349000FDF733F9CA214DF21750FDF72EF902213D
:1034A0004DF21850FDF729F900214DF21950FDF7A2
:1034B00024F902214DF21A50FDF71FF901214DF2B6
:1034C0001B50FDF71AF902214DF21C50FDF715F9BA
:1034D00034214DF21D50FDF710F902214DF21E501E
:1034E000FDF70BF967214DF21F50FDF706F9022198
:1034F0004DF22050FDF701F984214DF22150FDF7E6
:10350000FCF802214DF22250FDF7F7F8A4214DF20C
:103510002350FDF7F2F802214DF22450FDF7EDF8AB
:10352000B7214DF22550FDF7E8F802214DF2265063
:10353000FDF7E3F8CF214DF22750FDF7DEF8022129
:103540004DF22850FDF7D9F8DE214DF22950FDF754
:10355000D4F802214DF22A50FDF7CFF8F2214DF2B6
:103560002B50FDF7CAF802214DF22C50FDF7C5F89B
:10357000FE214DF22D50FDF7C0F803214DF22E50E3
:10358000FDF7BBF810214DF22F50FDF7B6F80321DF
:103590004DF23050FDF7B1F833214DF23150FDF7C7
:1035A000ACF803214DF23250FDF7A7F86D214DF232
:1035B0003350FDF7A2F800214FF45640FDF79DF877
:1035C00033214DF20160FDF798F800214DF20260C1
:1035D000FDF793F834214DF20360FDF78EF80021DA
:1035E0004DF20460FDF789F83A214DF20560FDF7D0
:1035F00084F800214DF20660FDF77FF84A214DF274
:103600000760FDF77AF800214DF20860FDF775F8C4
:103610005C214DF20960FDF770F800214DF20A605F
:10362000FDF76BF881214DF20B60FDF766F8002184
:103630004DF20C60FDF761F8A6214DF20D60FDF72B
:103640005CF800214DF20E60FDF757F8E5214DF2D0
:103650000F60FDF752F801214DF21060FDF74DF8B3
:1036600013214DF21160FDF748F801214DF212606F
:10367000FDF743F854214DF21360FDF73EF80121A8
:103680004DF21460FDF739F882214DF21560FDF717
:1036900034F801214DF21660FDF72FF8CA214DF2E2
:1036A0001760FDF72AF802214DF21860FDF725F8A2
:1036B00000214DF21960FDF720F802214DF21A6049
:1036C000FDF71BF801214DF21B60FDF716F80221F2
:1036D0004DF21C60FDF711F834214DF21D60FDF72D
:1036E0000CF802214DF21E60FDF707F867214DF23C
:1036F0001F60FDF702F802214DF22060FCF7FDFF8C
:1037000084214DF22160FCF7F8FF02214DF2226086
:10371000FCF7F3FFA4214DF22360FCF7EEFF02213A
:103720004DF22460FCF7E9FFB7214DF22560FCF76C
:10373000E4FF02214DF22660FCF7DFFFCF214DF2BE
:103740002760FCF7DAFF02214DF22860FCF7D5FF75
:10375000DE214DF22960FCF7D0FF02214DF22A60F4
:10376000FCF7CBFFF2214DF22B60FCF7C6FF0221E4
:103770004DF22C60FCF7C1FFFE214DF22D60FCF7ED
:10378000BCFF03214DF22E60FCF7B7FF10214DF274
:103790002F60FCF7B2FF03214DF23060FCF7ADFF64
:1037A00033214DF23160FCF7A8FF03214DF2326066
:1037B000FCF7A3FF6D214DF23360FCF79EFF55210E
:1037C0004FF47040FCF799FFAA214FF20100FCF77B
:1037D00094FF52214FF20200FCF78FFF08214FF2B5
:1037E0000300FCF78AFF00214FF20400FCF785FF7D
:1037F000CC214FF43140FCF780FF00214BF2011047
:10380000FCF77BFF05214FF43640FCF776FF702173
:103810004FF43740FCF771FF70214BF20170FCF759
:103820006CFF01214FF43840FCF767FF03214BF692
:103830000100FCF762FF03214BF60200FCF75DFF7D
:1038400003214BF60300FCF758FF02214FF43C40E4
:10385000FCF753FF00214BF60140FCF74EFF00211F
:103860004BF60240FCF749FFD0214FF44940FCF7EA
:1038700044FF02214CF60110FCF73FFF50214CF6AB
:103880000210FCF73AFF50214CF60310FCF735FF0D
:1038900050214CF60410FCF730FF00214FF4545037
:1038A000FCF72BFF55214FF46850FCF726FF4FF42F
:1038B0008850FCF713FF782005F0C9FF4FF424501F
:1038C000FCF70CFF01F05AB9FE488088A0F51341BF
:1038D00025397DD147F6F001E520FCF70EFF4FF4C6
:1038E00080710120FCF709FF4FF4E0610220FCF732
:1038F00004FF41F230010320FCF7FFFE0021042009
:10390000FCF7FBFE40F202210820FCF7F6FE002146
:103910000920FCF7F2FE00210A20FCF7EEFE002150
:103920000C20FCF7EAFE00210D20FCF7E6FE00214A
:103930000F20FCF7E2FE00211020FCF7DEFE07213D
:103940001120FCF7DAFE00211220FCF7D6FE002140
:103950001320FCF7D2FE00210720FCF7CEFE41F237
:1039600090611020FCF7C9FE40F227211120FCF7DE
:10397000C4FE9D211220FCF7C0FE4FF4C851132055
:10398000FCF7BBFE25212920FCF7B7FE0D212B20DB
:10399000FCF7B3FE07213020FCF7AFFE40F2033105
:1039A0003120FCF7AAFE03213220FCF7A6FE40F2EC
:1039B00006213520FCF7A1FE08213620FCF79DFEEC
:1039C00040F206413720FCF798FE4FF4417100E0C9
:1039D00058E03820FCF791FE07213920FCF78DFED6
:1039E00040F202613C20FCF788FE08213D20FCF7F4
:1039F00084FE00215020FCF780FEEF215120FCF7CF
:103A00007CFE00215220FCF778FE40F23F1153204B
:103A1000FCF773FE4FF427416020FCF76EFE012196
:103A20006120FCF76AFE00216A20FCF766FE002197
:103A30008020FCF762FE00218120FCF75EFE002161
:103A40008220FCF75AFE00218320FCF756FE00215D
:103A50008420FCF752FE00218520FCF74EFE102149
:103A60009020FCF74AFE4FF4C0619220FCF745FE1F
:103A700040F233110720FCF740FE22210020FCF722
:103A80003CFE1FE78F488088A0F5134128397DD17F
:103A900041F28F01EC20FCF730FE41F23421EF209F
:103AA000FCF72BFE4FF480710120FCF726FE4FF44B
:103AB000E0610220FCF721FE41F230010320FCF717
:103AC0001CFE00210420FCF718FE40F20221082011
:103AD000FCF713FE00210920FCF70FFE00210A204D
:103AE000FCF70BFE01210C20FCF707FE00210D2046
:103AF000FCF703FE00210F20FCF7FFFD0021102042
:103B0000FCF7FBFD07211120FCF7F7FD0021122037
:103B1000FCF7F3FD00211320FCF7EFFD0121072046
:103B2000FCF7EBFD322005F0B5FE41F2904110208C
:103B3000FCF7E3FD40F227211120FCF7DEFD3220E7
:103B400005F0A8FE8A211220FCF7D7FD322005F0EF
:103B5000A1FE4FF4D0511320FCF7CFFD0621292000
:103B6000FCF7CBFD0D212B20FCF7C7FD322005F023
:103B700091FE00212020FCF7C0FD00212120FCF750
:103B8000BCFD322005F086FE002100E075E030200B
:103B9000FCF7B3FD40F204613120FCF7AEFD40F2CA
:103BA00005313220FCF7A9FD00213520FCF7A5FDE9
:103BB00040F609413620FCF7A0FD4FF40171372093
:103BC000FCF79BFD40F201313820FCF796FD40F2F6
:103BD00007713920FCF791FD00213C20FCF78DFD99
:103BE00040F60A213D20FCF788FD322005F052FE08
:103BF00000215020FCF781FDEF215120FCF77DFDD5
:103C000000215220FCF779FD40F23F115320FCF7D0
:103C100074FD4FF427416020FCF76FFD0121612006
:103C2000FCF76BFD00216A20FCF767FD0021802076
:103C3000FCF763FD00218120FCF75FFD002182205D
:103C4000FCF75BFD00218320FCF757FD0021842059
:103C5000FCF753FD00218520FCF74FFD102190203B
:103C6000FCF74BFD4FF4C0619220FCF746FD40F29B
:103C700033110720FCF741FD24E612488088A0F5A7
:103C8000134120397ED10846FCF737FD4FF480718F
:103C90000120FCF732FD4FF4E0610220FCF72DFD1E
:103CA00041F230010320FCF728FD00210420FCF73D
:103CB00024FD40F202210820FCF71FFD002109200D
:103CC00002E00000BC020020FCF717FD00210A20E2
:103CD000FCF713FD01210C20FCF70FFD00210D2046
:103CE000FCF70BFD00210F20FCF707FD322005F04B
:103CF000D1FD40F201110720FCF7FFFC322005F056
:103D0000C9FD4FF486511020FCF7F7FC0721112064
:103D1000FCF7F3FC4FF488711220FCF7EEFC4FF433
:103D200030611320FCF7E9FC00212920FCF7E5FCB9
:103D300044F210012B20FCF7E0FC00215020FCF79E
:103D4000DCFCEF215120FCF7D8FC00215220FCF7CD
:103D5000D4FC40F23F115320FCF7CFFC4FF41C5130
:103D60006020FCF7CAFC01216120FCF7C6FC0021A1
:103D70006A20FCF7C2FC00218020FCF7BEFC002179
:103D8000812000E030E0FCF7B8FC00218220FCF745
:103D9000B4FC00218320FCF7B0FC00218420FCF758
:103DA000ACFC00218520FCF7A8FC10219020FCF73A
:103DB000A4FC00219220FCF7A0FC01219320FCF739
:103DC0009CFC4FF488719520FCF797FC002197200C
:103DD000FCF793FC00219820FCF78FFC40F2731154
:103DE0000720FCF78AFC6DE5FE488088A0F51341AA
:103DF00031397DD141F21401E720FCF77EFC4FF40C
:103E000080710120FCF779FC4FF400710220FCF76F
:103E100074FC41F238010320FCF76FFC40F20221F0
:103E20000820FCF76AFC00210920FCF766FC002151
:103E30000A20FCF762FC00210C20FCF75EFC00214C
:103E40000D20FCF75AFC00210F20FCF756FC002146
:103E50001020FCF752FC07211120FCF74EFC00213A
:103E60001220FCF74AFC00211320FCF746FCC82076
:103E700005F010FD41F290611020FCF73EFC40F28D
:103E800027211120FCF739FC322005F003FD0C211D
:103E90001220FCF732FC322005F0FCFC4FF40061EC
:103EA0001320FCF72AFC11212920FCF726FC0B210A
:103EB0002B20FCF722FC322005F0ECFC0021202016
:103EC000FCF71BFC40F23F112120FCF716FC0021FF
:103ED0003020FCF712FC4FF483713120FCF70DFC0D
:103EE00000213220FCF709FC4FF40171352000E07D
:103EF00064E0FCF702FC41F20A613620FCF7FDFBAE
:103F000040F207713720FCF7F8FB4FF4837138203B
:103F1000FCF7F3FB40F207713920FCF7EEFB40F2AF
:103F200002413C20FCF7E9FB40F60F413D20FCF745
:103F3000E4FB00215020FCF7E0FBEF215120FCF7CF
:103F4000DCFB00215220FCF7D8FB40F23F1153204C
:103F5000FCF7D3FB4FF41C516020FCF7CEFB012192
:103F60006120FCF7CAFB00216A20FCF7C6FB002198
:103F70008020FCF7C2FB00218120FCF7BEFB002162
:103F80008220FCF7BAFB00218320FCF7B6FB00215E
:103F90008420FCF7B2FB00218520FCF7AEFB10214A
:103FA0009020FCF7AAFB4FF4C0619220FCF7A5FB20
:103FB00040F233110720FCF7A0FB83E48948808896
:103FC000A0F5A84108397DD14FF480710120FCF79C
:103FD00094FB4FF4E0610220FCF78FFB41F23001CB
:103FE0000320FCF78AFB00210420FCF786FB40F24B
:103FF00007210820FCF781FB00210920FCF77DFB4D
:1040000000210A20FCF779FB00210C20FCF775FB4E
:1040100000210D20FCF771FB00210F20FCF76DFB48
:10402000142005F037FC41F2B0611020FCF765FB6D
:1040300001211120FCF761FB01211720FCF75DFB3A
:104040004FF49C711220FCF758FB4FF400611320D1
:10405000FCF753FB09212920FCF74FFB09212A20FB
:10406000FCF74BFB0021A420FCF747FB002150206C
:10407000FCF743FBEF215120FCF73FFB00215220CE
:10408000FCF73BFB40F23F115320FCF736FB4FF4AB
:104090001C516020FCF731FB01216120FCF72DFB56
:1040A00000216A20FCF729FB00218020FCF725FB7A
:1040B00000218120FCF721FB00218220FCF71DFB61
:1040C000002100E024E08320FCF717FB002184207E
:1040D000FCF713FB00218520FCF70FFB1321902038
:1040E000FCF70BFB00219220FCF707FB0321932038
:1040F000FCF703FB4FF488719520FCF7FEFA40F2C1
:1041000073110720FCF7F9FA322005F0C3FBB8E47D
:1041100034488088A0F5A851053965D10720FCF7FF
:10412000ECFA322005F0B6FB4FF48E711220FCF74A
:10413000E4FA0121A420FCF7E0FA0F210820FCF7A3
:10414000DCFA08210A20FCF7D8FA08210D20FCF738
:10415000D4FA40F207713020FCF7CFFA0721312062
:10416000FCF7CBFA40F203613220FCF7C6FA4FF4B9
:10417000E0613320FCF7C1FA40F202213420FCF761
:10418000BCFA02213520FCF7B8FA41F60F7136204F
:10419000FCF7B3FA40F207713720FCF7AEFA0021C2
:1041A0003820FCF7AAFA00213920FCF7A6FA40F2E1
:1041B00007713A20FCF7A1FA00213B20FCF79DFA99
:1041C00007213C20FCF799FA00213D20FCF795FAE5
:1041D000322005F05FFB01210720FCF78EFA012158
:1041E000172002E0BC020020AEE0FCF786FA322085
:1041F00005F050FB4FF4BD511020FCF77EFA40F261
:1042000017211120FCF779FA4FF48F711220FCF777
:1042100074FA4FF470611320FCF76FFA00212A2022
:10422000FCF76BFA0A212920FCF767FA4FF49F711B
:104230001220FCF762FA00215020FCF75EFAEF2111
:104240005120FCF75AFA00215220FCF756FA40F2AE
:104250003F115320FCF751FA4FF41C516020FCF73A
:104260004CFA01216120FCF748FA00216A20FCF792
:1042700044FA00218020FCF740FA00218120FCF75D
:104280003CFA00218220FCF738FA00218320FCF759
:1042900034FA00218420FCF730FA00218520FCF755
:1042A0002CFA13219020FCF728FA4FF44071922049
:1042B000FCF723FA05219320FCF71FFA0021952033
:1042C000FCF71BFA00219720FCF717FA0021982031
:1042D000FCF713FA4FF480710120FCF70EFA4FF44B
:1042E000E0610220FCF709FA41F238010320FCF7F3
:1042F00004FA00210420FCF700FA00210C20FCF74E
:10430000FCF900210F20FCF7F8F900212020FCF730
:10431000F4F900212120FCF7F0F921210720FCF716
:10432000ECF9142005F0B6FA61210720FCF7E5F955
:10433000142005F0AFFA40F273110720FCF7DDF905
:10434000142005F0A7FA97E4FE488088A0F53541CF
:1043500005397DD10846FCF7D0F900210846FCF765
:10436000CCF900210846FCF7C8F900210846FCF703
:10437000C4F90121A420FCF7C0F9142005F08AFA41
:104380004FF41C516020FCF7B8F940F202210820DC
:10439000FCF7B3F94FF405713020FCF7AEF943F2A6
:1043A00015713120FCF7A9F940F204613220FCF7C5
:1043B000A4F940F616613320FCF79FF942F211216F
:1043C0003420FCF79AF94FF4A8513520FCF795F901
:1043D00048F207513620FCF790F941F207413720A7
:1043E000FCF78BF941F203413820FCF786F92021D4
:1043F0003920FCF782F91A219020FCF77EF9002180
:104400001020FCF77AF907211120FCF776F900213A
:104410001220FCF772F900211320FCF76EF914202A
:1044200005F038FA4FF4E6611020FCF766F940F227
:1044300037111120FCF761F9142005F02BFA4FF425
:10444000DC711220FCF759F9142005F023FA00E082
:1044500083E04FF470611320FCF74FF980212A208C
:10446000FCF74BF948212920FCF747F9142005F007
:1044700011FA4FF480710120FCF73FF94FF4E0612D
:104480000220FCF73AF941F238010320FCF735F934
:1044900040F202210820FCF730F900210A20FCF745
:1044A0002CF900210C20FCF728F900210D20FCF745
:1044B00024F930210E20FCF720F900215020FCF7D0
:1044C0001CF9EF215120FCF718F900215220FCF7CC
:1044D00014F940F23F115320FCF70FF94FF41C512F
:1044E0006020FCF70AF901216120FCF706F90021A0
:1044F0006A20FCF702F911219020FCF7FEF84FF436
:10450000C0619220FCF7F9F840F202419320FCF7D9
:10451000F4F802219420FCF7F0F8142005F0BAF921
:1045200001210720FCF7E9F8142005F0B3F9612117
:104530000720FCF7E2F840F273110720FCF7DDF8E2
:1045400000212020FCF7D9F800212120FCF7D5F824
:1045500022210020FCF7D1F810E37A488088A0F5EA
:10456000454105397DD10846FCF7C7F800210846CA
:10457000FCF7C3F8142005F08DF900210846FCF77C
:10458000BCF800210846FCF7B8F800210846FCF703
:10459000B4F800210846FCF7B0F80121A420FCF78C
:1045A000ACF8142005F076F94FF41C516020FCF7AC
:1045B000A4F840F606010820FCF79FF840F20371CA
:1045C0003020FCF79AF801213120FCF796F80421FD
:1045D0003220FCF792F84FF481713320FCF78DF80C
:1045E0004FF440713420FCF788F840F20311352075
:1045F000FCF783F81F213620FCF77FF840F20371A7
:104600003720FCF77AF801213820FCF776F80421EE
:104610003920FCF772F815219020FCF76EF84FF462
:1046200082611020FCF769F840F247211120FCF765
:1046300064F84FF4DE711220FCF75FF84FF460610C
:104640001320FCF75AF8782005F024F94FF4807114
:104650000120FCF752F84FF400710220FCF74DF8EE
:1046600000E050E041F230010320FCF746F8082159
:104670000A20FCF742F800210C20FCF73EF820212C
:104680000E20FCF73AF800210F20FCF736F8002145
:104690002020FCF732F800212120FCF72EF83D21E4
:1046A0002A20FCF72AF8142005F0F4F82D212920FF
:1046B000FCF723F800215020FCF71FF84DF2EF0122
:1046C0005120FCF71AF800215220FCF716F840F2AE
:1046D0003F115320FCF711F800216120FCF70DF881
:1046E00000216A20FCF709F84FF440719220FCF792
:1046F00004F805219320FCF700F84FF4807107209F
:10470000FBF7FBFF3AE20F488088A0F58A41313978
:104710007ED101210020FBF7F0FF0A2005F0BAF856
:1047200041F228611020FBF7E8FF0E211220FBF771
:10473000E4FF40F639211320FBF7DFFF0A2005F0E4
:10474000A9F801E0BC02002040211120FBF7D5FFB1
:1047500050211520FBF7D1FF0A2005F09BF81E2100
:104760001220FBF7CAFF0A2005F094F84FF4B1516C
:104770001020FBF7C2FF42F639211320FBF7BDFFE3
:104780000A2005F087F84FF480710120FBF7B5FF90
:104790004FF440710220FBF7B0FF41F238010320D3
:1047A000FBF7ABFF40F202210820FBF7A6FF082130
:1047B0000A20FBF7A2FF00213020FBF79EFF40F20A
:1047C00002413120FBF799FF4FF483713220FBF750
:1047D00094FF40F203513320FBF78FFF4FF48271B7
:1047E0003420FBF78AFF40F201313520FBF785FFCB
:1047F00040F207713620FBF780FF40F20531372089
:10480000FBF77BFF4FF402713820FBF776FF00E0E7
:104810003EE040F60B713920FBF76FFF022141208B
:10482000FBF76BFF4FF41C516020FBF766FF012183
:104830006120FBF762FF4FF404719020FBF75DFFEE
:104840004FF485719220FBF758FF04219320FBF76A
:1048500054FF4FF48071A020FBF74FFF0121072088
:10486000FBF74BFF21210720FBF747FF2321072000
:10487000FBF743FF33210720FBF73FFF40F23311E3
:104880000720FBF73AFF0021A020FBF736FF75E178
:10489000F7488088A0F58A4135397CD13021152030
:1048A000FBF72BFF10219A20FBF727FF2021112077
:1048B000FBF723FF43F228411020FBF71EFF0221E4
:1048C0001220FBF71AFF41F238011320FBF715FF06
:1048D000282004F0DFFF12210846FBF70EFF2820F6
:1048E00004F0D8FF43F220411020FBF706FF43F20B
:1048F00038011320FBF701FF462004F0CBFF002115
:104900003020FBF7FAFE40F202413120FBF7F5FEC2
:1049100040F207313220FBF7F0FE4FF441713320B3
:10492000FBF7EBFE04213420FBF7E7FE40F20141E8
:104930003520FBF7E2FE40F207713620FBF7DDFE83
:1049400040F205313720FBF7D8FE4FF4C261382022
:10495000FBF7D3FE4FF4C2613920FBF7CEFE4FF4D4
:1049600080710120FBF7C9FE4FF440710220FBF774
:10497000C4FE41F230010320FBF7BFFE40F6080100
:104980000820FBF7BAFE08210A20FBF7B6FE4FF419
:104990001C51602000E033E0FBF7AFFE01216120F5
:1049A000FBF7ABFE4FF49F719020FBF7A6FE4FF490
:1049B00080719220FBF7A1FE4FF480719320FBF7EA
:1049C0009CFE4FF44051A020FBF797FE1021A3203E
:1049D000FBF793FE01210720FBF78FFE2121072023
:1049E000FBF78BFE23210720FBF787FE33210720EF
:1049F000FBF783FE40F233110720FBF77EFEBDE09C
:104A00009B488088A0F5C8516339F8D1E220FBF7B4
:104A100065FE1D20FBF765FE0220FBF762FE042009
:104A2000FBF75FFE642004F012FFE020FBF756FE68
:104A30000120FBF756FE0A2004F02CFFE020FBF7D4
:104A40004DFE0320FBF74DFE0C2004F023FF012058
:104A5000FBF744FE0A2004F01DFFE620FBF73EFEB4
:104A60002F20FBF73EFEFF20FBF73BFEFF20FBF76E
:104A700038FEB020FBF732FE2020FBF732FE00208C
:104A8000FBF72FFE0320FBF72CFE40F21F30FBF755
:104A900028FE0120FBF725FE40F2DF10FBF721FE88
:104AA0000020FBF71EFEB420FBF718FE0420FBF7E6
:104AB00018FE40F21F40FBF714FE0020FBF711FE2A
:104AC0002E20FBF70EFE0020FBF70BFE0020FBF76D
:104AD00008FE0020FBF705FE0020FBF702FEB620D3
:104AE000FBF7FCFD0220FBF7FCFD4FF40370FBF726
:104AF000F8FD0020FBF7F5FD1720FBF7F2FD152070
:104B0000FBF7EFFD0020FBF7ECFD0020FBF7E9FDD4
:104B1000F020FBF7E3FD0320FBF7E3FD2920FBF783
:104B2000DDFDD020FBF7DAFD0020FBF7DAFDBE202B
:104B3000FBF7D4FD0520FBF7D4FDFE20FBF7D1FDEC
:104B40000120FBF7CEFD0020FBF7CBFD0020FBF79B
:104B5000C8FD0020FBF7C5FDB820FBF7BFFD032013
:104B6000FBF7BFFD0120FBF7BCFDBA20FBF7B6FD4C
:104B70000120FBF7B6FD6420FCF713FA0020FCF7D8
:104B800038FA01203B4908604FF6FF70FCF71DFC26
:104B90001FB000BD2DE9FC4F05460E46174698464E
:104BA000DDF82C900020019031488088A0F5D0419C
:104BB000043929D12E488079012825D1AB463546C4
:104BC0002B480088C01B401E86B2474628480088F4
:104BD000A0EB0B00401E1FFA80F8002024498871CA
:104BE0002A2048812B20888143463A463146284670
:104BF000CDF80090FFF7CEFF01201D4988712B20D2
:104C000048812A2088811CE0781B401C80B20190DA
:104C1000344614E021462846FBF79CFDFBF77DFD5A
:104C20004FF0000A06E01448A0F800900AF10100D5
:104C30001FFA80FA01988245F5DB601C84B2444576
:104C4000E8DDBDE8FC8F2DE9F84F07460D4690469C
:104C50009946DDF828B0A8EB0700401C1FFA80FA3F
:104C6000A9EB0500401C80B2009000241BE000006E
:104C7000BC020020808121420008006C281981B20A
:104C80003846FBF767FDFBF748FD002607E004FB0D
:104C90000A603BF81000F7490880701C86B2564540
:104CA000F5DB601C84B200988442E7DBBDE8F88F36
:104CB0002DE9FF4F84B081468A4600200390029080
:104CC0000698A0EB09050798A0EB0A06CDF804901A
:104CD000CDF800A0002D01DD012705E00DB900276A
:104CE00002E04FF0FF376D42002E02DD4FF0010869
:104CF00006E016B94FF0000802E04FF0FF387642A8
:104D0000B54201DD2C4600E034464FF0000B21E0B7
:104D1000009A91B2019A90B2FCF775F80398284472
:104D200003900298304402900398A04205DD039856
:104D3000001B03900198384401900298A04205DDC1
:104D40000298001B02900098404400900BF1010073
:104D50001FFA80FB601C8345DADD08B0BDE8F08FE8
:104D6000F0B504460D4616461F462B4632462946E8
:104D70002046FFF79DFF3B46224629462046FFF787
:104D800097FF3B46324639462046FFF791FF3B46A8
:104D9000324629463046FFF78BFFF0BD2DE9F04340
:104DA00006460F469046002445460320A0EB4809DE
:104DB0003CE07A1B91B2321990B2FCF724F83A1B0E
:104DC00091B2721990B2FCF71EF83A1991B27219A9
:104DD00090B2FCF718F87A1991B2321990B2FCF738
:104DE00012F87A1991B2321B90B2FCF70CF83A190A
:104DF00091B2721B90B2FCF706F87A1B91B2321B8B
:104E000090B2FCF700F83A1B91B2721B90B2FBF71C
:104E1000FAFF641CB9F1000F03DAA000801D814481
:104E200004E0601B80000A3081446D1EAC42C0DD8E
:104E3000BDE8F0832DE9F84F80460E4617461C4624
:104E4000B3462046E31704EB5373DB1021464FEAC9
:104E5000E47C04EB5C7C4FEAEC0CB4EBCC0C02D0B1
:104E60004FF0010C01E04FF0000C6344224604EBCC
:104E7000D27C4FEA6C0C03FB0CF3DBB20093A7F17E
:104E80002000C7B2002556E00C2C07D107EB4700E5
:104E9000794901EB800010F8059013E0102C05D142
:104EA000764800EB071010F805900BE0182C07D19E
:104EB00007EBC700724901EB800010F8059001E094
:104EC000BDE8F88F4FF0000A2FE019F0800F06D0F0
:104ED0006C48028831464046FBF7A3FF07E00A987A
:104EE00028B96948028831464046FBF79AFF4FEAE5
:104EF00049604FEA1069701C86B264484088B0422D
:104F000000DCDDE7A6EB0B00A0420AD15E4608F10B
:104F100001001FFA80F85D480088404500DCCFE7BB
:104F200006E00AF1010000F0FF0ABAF1080FCCDB3D
:104F300000BF681CC5B200988542A5DB00BFBFE773
:104F400010B50246012000E050430B00A1F101041E
:104F5000E1B2F9D110BD2DE9FF4F81B0074691466E
:104F60001E460E9D4FF0000A002439E0301B401E03
:104F7000C1B20A20FFF7E4FFB9FBF0F00A21B0FB51
:104F8000F1F201FB1208BAF1000F16D1701EA04217
:104F900013DDB8F1000F0ED10020AB4605EBDB713D
:104FA000491001FB0471009088B22B46202202991F
:104FB000FFF740FF12E04FF0010A0020AB4605EB7F
:104FC000DB71491001FB0471009088B208F13001D7
:104FD000CAB22B460299FFF72DFF00BF601CC4B276
:104FE000B442C3DB05B0BDE8F08F2DE9FF4F82B0BE
:104FF000064692461F46DDE90F4800200190002535
:105000005CE0781B401EC1B20A20FFF799FFBAFB93
:10501000F0F00A21B0FBF1F201FB1209019840BB4C
:10502000781EA84236DDB9F1000F31D118F0800F9B
:105030000FD008F00100A34604EBDB71491001FB1F
:105040000561009088B2234630220399FFF7F2FEF3
:105050000EE008F00100A34604EBDB71491001FBF0
:105060000561009088B2234620220399FFF7E2FEF3
:1050700022E00FE00008006C2E5B0108A25F01082F
:10508000926501081600002018000020BC020020D4
:105090000120019008F00100A34604EBDB714910E8
:1050A00001FB0561009088B209F13001CAB22346C4
:1050B0000399FFF7BFFE00BF681CC5B2BD42A0DB6D
:1050C00006B0BDE8F08F2DE9F84704460D4690463E
:1050D0009946DDE9096704F0FF0A08EB04001FFAAE
:1050E00080F809EB05001FFA80F916E0444502DB61
:1050F0005446A81985B24D4500DB14E0002000900D
:105100003A78334629462046FFF794FE304606EBB0
:10511000D07104EB61018CB27F1C38787E2802DCF0
:1051200038782028E2DA00BFBDE8F88770B5054678
:10513000002405E0601CC4B2C82C01DD002070BD55
:1051400002213A4805F0DDFC0028F3D02946374813
:1051500005F084FC002405E0601CC4B2C82C01DD0D
:105160000020ECE70121314805F0CBFC0028F3D00A
:105170002E4805F075FCC0B2E1E700B587B001210B
:10518000082005F007FB0121880305F010FB4FF410
:105190006040ADF8180018208DF81B0003208DF832
:1051A0001A0006A9224805F03FF84FF46041204854
:1051B00005F0E5F80020ADF804004FF48270ADF87A
:1051C00006000020ADF808000220ADF80A0001201A
:1051D000ADF80C004002ADF80E003820ADF810001C
:1051E0000020ADF812000720ADF8140001A90F4807
:1051F00005F05EFB01210D4805F0FFFBFF20FFF7E6
:1052000095FF07B000BD10B50446084800884FF66A
:10521000C771084005490880084600882043088077
:105220000121024805F0E9FB10BD000000380040F4
:10523000000C014010B500240020D64908604FF052
:105240009000FFF773FF0020FFF770FF0020FFF7CB
:105250006DFF0020FFF76AFFFF20FFF767FF44EABA
:105260000024FF20FFF762FF04430120CA49C1F870
:10527000B001204610BD08B50121082005F08AFACA
:105280004FF48050ADF8000010208DF8030003208B
:105290008DF802006946C14804F0C6FF4FF4805102
:1052A000BE4805F06CF80120BA490860FFF765FFB9
:1052B0000020FFF7A8FFFFF7BDFFB949088008BD30
:1052C00010B500240020B34908604FF00500FFF737
:1052D0002DFFFF20FFF72AFF04460120AE49C1F849
:1052E000B001204610BD10B504460020A949086051
:1052F0004FF00100FFF71AFF2046FFF717FF0120CC
:10530000A549C1F8B00110BD10B50020A149086041
:105310004FF00600FFF70AFF01209F49C1F8B001D6
:1053200010BD10B500209B4908604FF00400FFF746
:10533000FDFE01209849C1F8B00110BD2DE9F041F2
:1053400006460C4617460020924908604FF00300BD
:10535000FFF7ECFEC4F30740FFF7E8FEC4F30720B5
:10536000FFF7E4FEE0B2FFF7E1FE002505E0FF20D5
:10537000FFF7DCFE7055681C85B2BD42F7DB0120EB
:1053800084490860BDE8F08110B500BFFFF798FFC1
:1053900010F0010FFAD110BD2DE9F04106460C4680
:1053A0001746FFF7B1FF00207A4908604FF002006E
:1053B000FFF7BCFEC4F30740FFF7B8FEC4F30720B5
:1053C000FFF7B4FEE0B2FFF7B1FE002504E0705D28
:1053D000FFF7ACFE681C85B2BD42F8DB01206D49C9
:1053E0000860FFF7D1FFBDE8F0812DE9F0410746E5
:1053F0000E461446F0B2C0F58075AC4200DC25467E
:1054000012E02A4631463846FFF7C6FFAC4200D1CB
:105410000BE02F442E44601B84B2B4F5807F02DD84
:105420004FF4807500E02546EBE700BFBDE8F08152
:1054300010B5044621465BA00DF0BAFD2403FFF72A
:1054400063FFFFF7A1FF0020524908604FF02000E2
:10545000FFF76CFEC4F30740FFF768FEC4F30720B4
:10546000FFF764FEE0B2FFF761FE01204A49C1F890
:10547000B001FFF789FF10BD2DE9F05F81460F46AF
:105480001646DFF828B14FEA1738C7F30B0ACAF5FA
:105490008054A64200DC344644E04FEA08314FF421
:1054A00080525846FFF74AFF002508E00AEB050046
:1054B0001BF80000FF2800D003E0681C85B2A5425D
:1054C000F4DB00BFA54216DA4046FFF7B1FF002526
:1054D00007E019F8050005EB0A010BF80100681C4C
:1054E00085B2A542F5DB4FEA08314FF480525846A9
:1054F000FFF77BFF04E0224639464846FFF775FF79
:10550000A64200D10FE008F101084FF0000AA144C3
:105510002744301B86B2B6F5805F02DD4FF480541D
:1055200000E03446B9E700BFBDE8F09F10B5FFF7D3
:10553000EBFEFFF729FF0020164908604FF0C70077
:10554000FFF7F4FD01201449C1F8B001FFF71CFF7B
:1055500010BD10B500200F4908604FF0B900FFF7EB
:10556000E5FD01200C49C1F8B001032004F06FF9FA
:1055700010BD10B50020074908604FF0AB00FFF7E1
:10558000D5FD01200449C1F8B001032004F05FF902
:1055900010BD0000B081214200802142000C01407A
:1055A0001A00002066653A25780D0A00CA0200201C
:1055B00001460020012900D011B9FE4B197000E00E
:1055C000262070470146FC4A506820F0FF0008433F
:1055D0005060704770B5044605E0F748456B15F01C
:1055E000450F00D000E0F8E700BF042006F092FC71
:1055F00020B1042006F098FC032070BD012006F0C5
:1056000089FC20B1012006F08FFC0120F5E7EA4873
:105610000069A04201D01020EFE740F2FF50E649B8
:1056200088630846406908210840C0B2E5E72DE9D3
:10563000FC4107460D460026002400200090019002
:105640000820DE4908601020486040208860002063
:10565000C8604FF480600861084606F0E9FB10203E
:10566000FFF7B8FF044614B12046BDE8FC81D448DA
:1056700000880004D14908603720486040208860D5
:105680000020C8604FF480600861084606F0D0FB37
:105690003720FFF79FFF04460CB12046E5E74FF0A7
:1056A000FF30C84908600820486030208860022028
:1056B000C8600020086101204861084606F0E1FB4F
:1056C0000020BE49086033204860402088600020E8
:1056D000C8604FF480600861084606F0A9FB3320DB
:1056E000FFF778FF04460CB12046BEE70CE04FF40C
:1056F000001006F00FFC38B106F0E5FB4DF826006F
:10570000761C022E00D305E0AB48406B40F22A61C4
:105710000842ECD000BF082006F0FCFB20B10820B6
:1057200006F002FC0420A0E7022006F0F3FB20B103
:10573000022006F0F9FB022097E7202006F0EAFBA2
:1057400020B1202006F0F0FB06208EE74FF4007019
:1057500006F0E0FB28B14FF4007006F0E5FB0720EF
:1057600083E740F2FF5006F0DFFB00980006009947
:1057700001F47F4140EA0120009901F47F0140EAF1
:105780001120009940EA11606860019800060199B3
:1057900001F47F4140EA0120019901F47F0140EAD0
:1057A0001120019940EA1160286020465DE77CB530
:1057B0000546002400200090019000260DB102262D
:1057C00000E000267C48406910F0007F01D00E20E8
:1057D0007CBD7B49098888B26946FFF728FF0446EB
:1057E0000CB12046F4E7019810F4802F2CD07448B7
:1057F00000880004714908603720486040208860B4
:105800000020C8604FF480600861084606F010FB75
:105810003720FFF7DFFE04460CB12046D8E7674883
:105820000660062065494860402088600020C86006
:105830004FF480600861084606F0FAFA0620FFF788
:10584000C9FE04462046C3E72520C1E770B50446DB
:1058500000255D480078032801D1272070BD5A48F3
:10586000007838B158480078012803D056480078AD
:10587000022818D1022C01D32720EFE7E0B2FFF76E
:1058800096FF05467DB94C48406820F4C0504A490F
:10589000486008464068A1B240EAC12046494860D5
:1058A0000846406848602846D8E710B50446434893
:1058B0000460072041494860402088600020C8609B
:1058C0004FF480600861084606F0B2FA0720FFF73F
:1058D00081FE10BDF0B50146002000223A4B1B7836
:1058E00081F85630364B1B88A1F85430374B1B6873
:1058F0001A0E93090B70C2F383034B7002F003037B
:105900008B70324B1B68C3F30742CA702F4B1B8846
:10591000C3F307220A712D4B1A784A715B681A0E7D
:105920001301CB80294B5B68C3F30742CB8843EA62
:105930001213CB8002F00F030B72244B9B88C3F32E
:105940000722D3094B72C2F380138B72C2F3401348
:10595000CB72C2F300130B7300234B731A4B1B78EB
:105960003BB1194B1B78012B03D0174B1B78032B32
:105970005ED193071B0D0B61144B1A790B6943EA37
:1059800082030B61114B9B681A0E0B6943EA921359
:105990000B61C2F3C2030B7502F007034B750B4B8F
:1059A0009B68C3F3074253098B75C2F38203CB751F
:1059B00093070DE02400002000800140E812002041
:1059C00020000020FC1200201C00002014130020E6
:1059D0005B0F0B76FE4B1B89C3F307220B7E43EA5A
:1059E000D2130B760B695B1C0024C1E912340B7EC9
:1059F0009B1C012404FA03F3DC17D1E91256A5FB22
:105A0000037C06FB03C305FB0433C1E912730C7A64
:105A10000123A3400B650024D1E912650B6DA6FBA1
:105A2000037C05FB03C306FB0433C1E912732EE0BC
:105A3000E84B1B78022B2AD1E54B1A7993069B0A77
:105A40000B61E34B9B681A0E0B6943EA02230B615F
:105A5000DF4B9B68C3F307420B6913430B61DC4BBD
:105A60001B89C3F307220B695B1C4FF40074A3FB73
:105A700004464FF480630025A4FB037C06FB03C3AC
:105A800004FB0533C1E912734FF400730B65C2F3D5
:105A9000801301F8193F93065B0E4B70CC4B1A7ABA
:105AA0004B7843EAD2134B7002F07F038B70C84BE4
:105AB000DB681A0ED309CB70C2F341130B71C2F32A
:105AC00082034B7193071B0F8B71C14BDB68C3F3D0
:105AD00007428B7943EA92138B71C2F34013CB7167
